{
  "_format": "hh-sol-artifact-1",
  "contractName": "Cert",
  "sourceName": "contracts/Cert.sol",
  "abi": [
    {
      "inputs": [],
      "stateMutability": "nonpayable",
      "type": "constructor"
    },
    {
      "inputs": [
        {
          "internalType": "uint256",
          "name": "",
          "type": "uint256"
        }
      ],
      "name": "Certificates",
      "outputs": [
        {
          "internalType": "string",
          "name": "name",
          "type": "string"
        },
        {
          "internalType": "string",
          "name": "course",
          "type": "string"
        },
        {
          "internalType": "string",
          "name": "grade",
          "type": "string"
        },
        {
          "internalType": "string",
          "name": "date",
          "type": "string"
        }
      ],
      "stateMutability": "view",
      "type": "function"
    },
    {
      "inputs": [
        {
          "internalType": "address",
          "name": "newAdmin",
          "type": "address"
        }
      ],
      "name": "addAdmin",
      "outputs": [],
      "stateMutability": "nonpayable",
      "type": "function"
    },
    {
      "inputs": [
        {
          "internalType": "address",
          "name": "",
          "type": "address"
        }
      ],
      "name": "admins",
      "outputs": [
        {
          "internalType": "bool",
          "name": "",
          "type": "bool"
        }
      ],
      "stateMutability": "view",
      "type": "function"
    },
    {
      "inputs": [
        {
          "internalType": "uint256",
          "name": "_id",
          "type": "uint256"
        }
      ],
      "name": "getCertificate",
      "outputs": [
        {
          "internalType": "string",
          "name": "",
          "type": "string"
        },
        {
          "internalType": "string",
          "name": "",
          "type": "string"
        },
        {
          "internalType": "string",
          "name": "",
          "type": "string"
        },
        {
          "internalType": "string",
          "name": "",
          "type": "string"
        }
      ],
      "stateMutability": "view",
      "type": "function"
    },
    {
      "inputs": [
        {
          "internalType": "uint256",
          "name": "_id",
          "type": "uint256"
        },
        {
          "internalType": "string",
          "name": "_name",
          "type": "string"
        },
        {
          "internalType": "string",
          "name": "_course",
          "type": "string"
        },
        {
          "internalType": "string",
          "name": "_grade",
          "type": "string"
        },
        {
          "internalType": "string",
          "name": "_date",
          "type": "string"
        }
      ],
      "name": "issue",
      "outputs": [],
      "stateMutability": "nonpayable",
      "type": "function"
    },
    {
      "inputs": [
        {
          "internalType": "address",
          "name": "_admin",
          "type": "address"
        }
      ],
      "name": "removeAdmin",
      "outputs": [],
      "stateMutability": "nonpayable",
      "type": "function"
    }
  ],
  "bytecode": "0x6080604052348015600f57600080fd5b50336000806101000a81548173ffffffffffffffffffffffffffffffffffffffff021916908373ffffffffffffffffffffffffffffffffffffffff1602179055506111ed8061005f6000396000f3fe608060405234801561001057600080fd5b50600436106100625760003560e01c80631785f53c14610067578063429b62e51461008357806351640fee146100b357806370480275146100e65780639622c83614610102578063d1e7be2614610135575b600080fd5b610081600480360381019061007c9190610a2a565b610151565b005b61009d60048036038101906100989190610a2a565b6102a8565b6040516100aa9190610a72565b60405180910390f35b6100cd60048036038101906100c89190610ac3565b6102c8565b6040516100dd9493929190610b80565b60405180910390f35b61010060048036038101906100fb9190610a2a565b61055c565b005b61011c60048036038101906101179190610ac3565b610644565b60405161012c9493929190610b80565b60405180910390f35b61014f600480360381019061014a9190610d16565b610894565b005b3373ffffffffffffffffffffffffffffffffffffffff1660008054906101000a900473ffffffffffffffffffffffffffffffffffffffff1673ffffffffffffffffffffffffffffffffffffffff16146101df576040517f08c379a00000000000000000000000000000000000000000000000000000000081526004016101d690610e4d565b60405180910390fd5b3373ffffffffffffffffffffffffffffffffffffffff168173ffffffffffffffffffffffffffffffffffffffff160361024d576040517f08c379a000000000000000000000000000000000000000000000000000000000815260040161024490610eb9565b60405180910390fd5b6000600160008373ffffffffffffffffffffffffffffffffffffffff1673ffffffffffffffffffffffffffffffffffffffff16815260200190815260200160002060006101000a81548160ff02191690831515021790555050565b60016020528060005260406000206000915054906101000a900460ff1681565b6060806060806000600260008781526020019081526020016000206040518060800160405290816000820180546102fe90610f08565b80601f016020809104026020016040519081016040528092919081815260200182805461032a90610f08565b80156103775780601f1061034c57610100808354040283529160200191610377565b820191906000526020600020905b81548152906001019060200180831161035a57829003601f168201915b5050505050815260200160018201805461039090610f08565b80601f01602080910402602001604051908101604052809291908181526020018280546103bc90610f08565b80156104095780601f106103de57610100808354040283529160200191610409565b820191906000526020600020905b8154815290600101906020018083116103ec57829003601f168201915b5050505050815260200160028201805461042290610f08565b80601f016020809104026020016040519081016040528092919081815260200182805461044e90610f08565b801561049b5780601f106104705761010080835404028352916020019161049b565b820191906000526020600020905b81548152906001019060200180831161047e57829003601f168201915b505050505081526020016003820180546104b490610f08565b80601f01602080910402602001604051908101604052809291908181526020018280546104e090610f08565b801561052d5780601f106105025761010080835404028352916020019161052d565b820191906000526020600020905b81548152906001019060200180831161051057829003601f168201915b505050505081525050905080600001518160200151826040015183606001519450945094509450509193509193565b3373ffffffffffffffffffffffffffffffffffffffff1660008054906101000a900473ffffffffffffffffffffffffffffffffffffffff1673ffffffffffffffffffffffffffffffffffffffff16146105ea576040517f08c379a00000000000000000000000000000000000000000000000000000000081526004016105e190610e4d565b60405180910390fd5b60018060008373ffffffffffffffffffffffffffffffffffffffff1673ffffffffffffffffffffffffffffffffffffffff16815260200190815260200160002060006101000a81548160ff02191690831515021790555050565b600260205280600052604060002060009150905080600001805461066790610f08565b80601f016020809104026020016040519081016040528092919081815260200182805461069390610f08565b80156106e05780601f106106b5576101008083540402835291602001916106e0565b820191906000526020600020905b8154815290600101906020018083116106c357829003601f168201915b5050505050908060010180546106f590610f08565b80601f016020809104026020016040519081016040528092919081815260200182805461072190610f08565b801561076e5780601f106107435761010080835404028352916020019161076e565b820191906000526020600020905b81548152906001019060200180831161075157829003601f168201915b50505050509080600201805461078390610f08565b80601f01602080910402602001604051908101604052809291908181526020018280546107af90610f08565b80156107fc5780601f106107d1576101008083540402835291602001916107fc565b820191906000526020600020905b8154815290600101906020018083116107df57829003601f168201915b50505050509080600301805461081190610f08565b80601f016020809104026020016040519081016040528092919081815260200182805461083d90610f08565b801561088a5780601f1061085f5761010080835404028352916020019161088a565b820191906000526020600020905b81548152906001019060200180831161086d57829003601f168201915b5050505050905084565b3373ffffffffffffffffffffffffffffffffffffffff1660008054906101000a900473ffffffffffffffffffffffffffffffffffffffff1673ffffffffffffffffffffffffffffffffffffffff1614610922576040517f08c379a000000000000000000000000000000000000000000000000000000000815260040161091990610e4d565b60405180910390fd5b60405180608001604052808581526020018481526020018381526020018281525060026000878152602001908152602001600020600082015181600001908161096b91906110e5565b50602082015181600101908161098191906110e5565b50604082015181600201908161099791906110e5565b5060608201518160030190816109ad91906110e5565b509050505050505050565b6000604051905090565b600080fd5b600080fd5b600073ffffffffffffffffffffffffffffffffffffffff82169050919050565b60006109f7826109cc565b9050919050565b610a07816109ec565b8114610a1257600080fd5b50565b600081359050610a24816109fe565b92915050565b600060208284031215610a4057610a3f6109c2565b5b6000610a4e84828501610a15565b91505092915050565b60008115159050919050565b610a6c81610a57565b82525050565b6000602082019050610a876000830184610a63565b92915050565b6000819050919050565b610aa081610a8d565b8114610aab57600080fd5b50565b600081359050610abd81610a97565b92915050565b600060208284031215610ad957610ad86109c2565b5b6000610ae784828501610aae565b91505092915050565b600081519050919050565b600082825260208201905092915050565b60005b83811015610b2a578082015181840152602081019050610b0f565b60008484015250505050565b6000601f19601f8301169050919050565b6000610b5282610af0565b610b5c8185610afb565b9350610b6c818560208601610b0c565b610b7581610b36565b840191505092915050565b60006080820190508181036000830152610b9a8187610b47565b90508181036020830152610bae8186610b47565b90508181036040830152610bc28185610b47565b90508181036060830152610bd68184610b47565b905095945050505050565b600080fd5b600080fd5b7f4e487b7100000000000000000000000000000000000000000000000000000000600052604160045260246000fd5b610c2382610b36565b810181811067ffffffffffffffff82111715610c4257610c41610beb565b5b80604052505050565b6000610c556109b8565b9050610c618282610c1a565b919050565b600067ffffffffffffffff821115610c8157610c80610beb565b5b610c8a82610b36565b9050602081019050919050565b82818337600083830152505050565b6000610cb9610cb484610c66565b610c4b565b905082815260208101848484011115610cd557610cd4610be6565b5b610ce0848285610c97565b509392505050565b600082601f830112610cfd57610cfc610be1565b5b8135610d0d848260208601610ca6565b91505092915050565b600080600080600060a08688031215610d3257610d316109c2565b5b6000610d4088828901610aae565b955050602086013567ffffffffffffffff811115610d6157610d606109c7565b5b610d6d88828901610ce8565b945050604086013567ffffffffffffffff811115610d8e57610d8d6109c7565b5b610d9a88828901610ce8565b935050606086013567ffffffffffffffff811115610dbb57610dba6109c7565b5b610dc788828901610ce8565b925050608086013567ffffffffffffffff811115610de857610de76109c7565b5b610df488828901610ce8565b9150509295509295909350565b7f556e617574686f72697a65642041636365737320212120000000000000000000600082015250565b6000610e37601783610afb565b9150610e4282610e01565b602082019050919050565b60006020820190508181036000830152610e6681610e2a565b9050919050565b7f596f752063616e27742072656d6f766520796f757273656c6600000000000000600082015250565b6000610ea3601983610afb565b9150610eae82610e6d565b602082019050919050565b60006020820190508181036000830152610ed281610e96565b9050919050565b7f4e487b7100000000000000000000000000000000000000000000000000000000600052602260045260246000fd5b60006002820490506001821680610f2057607f821691505b602082108103610f3357610f32610ed9565b5b50919050565b60008190508160005260206000209050919050565b60006020601f8301049050919050565b600082821b905092915050565b600060088302610f9b7fffffffffffffffffffffffffffffffffffffffffffffffffffffffffffffffff82610f5e565b610fa58683610f5e565b95508019841693508086168417925050509392505050565b6000819050919050565b6000610fe2610fdd610fd884610a8d565b610fbd565b610a8d565b9050919050565b6000819050919050565b610ffc83610fc7565b61101061100882610fe9565b848454610f6b565b825550505050565b600090565b611025611018565b611030818484610ff3565b505050565b5b818110156110545761104960008261101d565b600181019050611036565b5050565b601f8211156110995761106a81610f39565b61107384610f4e565b81016020851015611082578190505b61109661108e85610f4e565b830182611035565b50505b505050565b600082821c905092915050565b60006110bc6000198460080261109e565b1980831691505092915050565b60006110d583836110ab565b9150826002028217905092915050565b6110ee82610af0565b67ffffffffffffffff81111561110757611106610beb565b5b6111118254610f08565b61111c828285611058565b600060209050601f83116001811461114f576000841561113d578287015190505b61114785826110c9565b8655506111af565b601f19841661115d86610f39565b60005b8281101561118557848901518255600182019150602085019450602081019050611160565b868310156111a2578489015161119e601f8916826110ab565b8355505b6001600288020188555050505b50505050505056fea2646970667358221220b5041f1fc0982f3d499ba6e2fce16a792ac9aa931e58fbe3c5aa6508cee7f45c64736f6c634300081c0033",
  "linkReferences": {},
  "deployedLinkReferences": {}
}