{
  "_format": "hh-sol-artifact-1",
  "contractName": "Cert",
  "sourceName": "contracts/Cert.sol",
  "abi": [
    {
      "inputs": [],
      "stateMutability": "nonpayable",
      "type": "constructor"
    },
    {
      "inputs": [
        {
          "internalType": "uint256",
          "name": "",
          "type": "uint256"
        }
      ],
      "name": "Certificates",
      "outputs": [
        {
          "internalType": "string",
          "name": "name",
          "type": "string"
        },
        {
          "internalType": "string",
          "name": "course",
          "type": "string"
        },
        {
          "internalType": "string",
          "name": "grade",
          "type": "string"
        },
        {
          "internalType": "string",
          "name": "date",
          "type": "string"
        }
      ],
      "stateMutability": "view",
      "type": "function"
    },
    {
      "inputs": [
        {
          "internalType": "address",
          "name": "newAdmin",
          "type": "address"
        }
      ],
      "name": "addAdmin",
      "outputs": [],
      "stateMutability": "nonpayable",
      "type": "function"
    },
    {
      "inputs": [
        {
          "internalType": "address",
          "name": "",
          "type": "address"
        }
      ],
      "name": "admins",
      "outputs": [
        {
          "internalType": "bool",
          "name": "",
          "type": "bool"
        }
      ],
      "stateMutability": "view",
      "type": "function"
    },
    {
      "inputs": [
        {
          "internalType": "uint256",
          "name": "_id",
          "type": "uint256"
        },
        {
          "internalType": "string",
          "name": "_name",
          "type": "string"
        },
        {
          "internalType": "string",
          "name": "_course",
          "type": "string"
        },
        {
          "internalType": "string",
          "name": "_grade",
          "type": "string"
        },
        {
          "internalType": "string",
          "name": "_date",
          "type": "string"
        }
      ],
      "name": "issue",
      "outputs": [],
      "stateMutability": "nonpayable",
      "type": "function"
    },
    {
      "inputs": [
        {
          "internalType": "address",
          "name": "_admin",
          "type": "address"
        }
      ],
      "name": "removeAdmin",
      "outputs": [],
      "stateMutability": "nonpayable",
      "type": "function"
    }
  ],
  "bytecode": "0x6080604052348015600f57600080fd5b50336000806101000a81548173ffffffffffffffffffffffffffffffffffffffff021916908373ffffffffffffffffffffffffffffffffffffffff160217905550610f1b8061005f6000396000f3fe608060405234801561001057600080fd5b50600436106100575760003560e01c80631785f53c1461005c578063429b62e51461007857806370480275146100a85780639622c836146100c4578063d1e7be26146100f7575b600080fd5b61007660048036038101906100719190610758565b610113565b005b610092600480360381019061008d9190610758565b61026a565b60405161009f91906107a0565b60405180910390f35b6100c260048036038101906100bd9190610758565b61028a565b005b6100de60048036038101906100d991906107f1565b610372565b6040516100ee94939291906108ae565b60405180910390f35b610111600480360381019061010c9190610a44565b6105c2565b005b3373ffffffffffffffffffffffffffffffffffffffff1660008054906101000a900473ffffffffffffffffffffffffffffffffffffffff1673ffffffffffffffffffffffffffffffffffffffff16146101a1576040517f08c379a000000000000000000000000000000000000000000000000000000000815260040161019890610b7b565b60405180910390fd5b3373ffffffffffffffffffffffffffffffffffffffff168173ffffffffffffffffffffffffffffffffffffffff160361020f576040517f08c379a000000000000000000000000000000000000000000000000000000000815260040161020690610be7565b60405180910390fd5b6000600160008373ffffffffffffffffffffffffffffffffffffffff1673ffffffffffffffffffffffffffffffffffffffff16815260200190815260200160002060006101000a81548160ff02191690831515021790555050565b60016020528060005260406000206000915054906101000a900460ff1681565b3373ffffffffffffffffffffffffffffffffffffffff1660008054906101000a900473ffffffffffffffffffffffffffffffffffffffff1673ffffffffffffffffffffffffffffffffffffffff1614610318576040517f08c379a000000000000000000000000000000000000000000000000000000000815260040161030f90610b7b565b60405180910390fd5b60018060008373ffffffffffffffffffffffffffffffffffffffff1673ffffffffffffffffffffffffffffffffffffffff16815260200190815260200160002060006101000a81548160ff02191690831515021790555050565b600260205280600052604060002060009150905080600001805461039590610c36565b80601f01602080910402602001604051908101604052809291908181526020018280546103c190610c36565b801561040e5780601f106103e35761010080835404028352916020019161040e565b820191906000526020600020905b8154815290600101906020018083116103f157829003601f168201915b50505050509080600101805461042390610c36565b80601f016020809104026020016040519081016040528092919081815260200182805461044f90610c36565b801561049c5780601f106104715761010080835404028352916020019161049c565b820191906000526020600020905b81548152906001019060200180831161047f57829003601f168201915b5050505050908060020180546104b190610c36565b80601f01602080910402602001604051908101604052809291908181526020018280546104dd90610c36565b801561052a5780601f106104ff5761010080835404028352916020019161052a565b820191906000526020600020905b81548152906001019060200180831161050d57829003601f168201915b50505050509080600301805461053f90610c36565b80601f016020809104026020016040519081016040528092919081815260200182805461056b90610c36565b80156105b85780601f1061058d576101008083540402835291602001916105b8565b820191906000526020600020905b81548152906001019060200180831161059b57829003601f168201915b5050505050905084565b3373ffffffffffffffffffffffffffffffffffffffff1660008054906101000a900473ffffffffffffffffffffffffffffffffffffffff1673ffffffffffffffffffffffffffffffffffffffff1614610650576040517f08c379a000000000000000000000000000000000000000000000000000000000815260040161064790610b7b565b60405180910390fd5b6040518060800160405280858152602001848152602001838152602001828152506002600087815260200190815260200160002060008201518160000190816106999190610e13565b5060208201518160010190816106af9190610e13565b5060408201518160020190816106c59190610e13565b5060608201518160030190816106db9190610e13565b509050505050505050565b6000604051905090565b600080fd5b600080fd5b600073ffffffffffffffffffffffffffffffffffffffff82169050919050565b6000610725826106fa565b9050919050565b6107358161071a565b811461074057600080fd5b50565b6000813590506107528161072c565b92915050565b60006020828403121561076e5761076d6106f0565b5b600061077c84828501610743565b91505092915050565b60008115159050919050565b61079a81610785565b82525050565b60006020820190506107b56000830184610791565b92915050565b6000819050919050565b6107ce816107bb565b81146107d957600080fd5b50565b6000813590506107eb816107c5565b92915050565b600060208284031215610807576108066106f0565b5b6000610815848285016107dc565b91505092915050565b600081519050919050565b600082825260208201905092915050565b60005b8381101561085857808201518184015260208101905061083d565b60008484015250505050565b6000601f19601f8301169050919050565b60006108808261081e565b61088a8185610829565b935061089a81856020860161083a565b6108a381610864565b840191505092915050565b600060808201905081810360008301526108c88187610875565b905081810360208301526108dc8186610875565b905081810360408301526108f08185610875565b905081810360608301526109048184610875565b905095945050505050565b600080fd5b600080fd5b7f4e487b7100000000000000000000000000000000000000000000000000000000600052604160045260246000fd5b61095182610864565b810181811067ffffffffffffffff821117156109705761096f610919565b5b80604052505050565b60006109836106e6565b905061098f8282610948565b919050565b600067ffffffffffffffff8211156109af576109ae610919565b5b6109b882610864565b9050602081019050919050565b82818337600083830152505050565b60006109e76109e284610994565b610979565b905082815260208101848484011115610a0357610a02610914565b5b610a0e8482856109c5565b509392505050565b600082601f830112610a2b57610a2a61090f565b5b8135610a3b8482602086016109d4565b91505092915050565b600080600080600060a08688031215610a6057610a5f6106f0565b5b6000610a6e888289016107dc565b955050602086013567ffffffffffffffff811115610a8f57610a8e6106f5565b5b610a9b88828901610a16565b945050604086013567ffffffffffffffff811115610abc57610abb6106f5565b5b610ac888828901610a16565b935050606086013567ffffffffffffffff811115610ae957610ae86106f5565b5b610af588828901610a16565b925050608086013567ffffffffffffffff811115610b1657610b156106f5565b5b610b2288828901610a16565b9150509295509295909350565b7f556e617574686f72697a65642041636365737320212120000000000000000000600082015250565b6000610b65601783610829565b9150610b7082610b2f565b602082019050919050565b60006020820190508181036000830152610b9481610b58565b9050919050565b7f596f752063616e27742072656d6f766520796f757273656c6600000000000000600082015250565b6000610bd1601983610829565b9150610bdc82610b9b565b602082019050919050565b60006020820190508181036000830152610c0081610bc4565b9050919050565b7f4e487b7100000000000000000000000000000000000000000000000000000000600052602260045260246000fd5b60006002820490506001821680610c4e57607f821691505b602082108103610c6157610c60610c07565b5b50919050565b60008190508160005260206000209050919050565b60006020601f8301049050919050565b600082821b905092915050565b600060088302610cc97fffffffffffffffffffffffffffffffffffffffffffffffffffffffffffffffff82610c8c565b610cd38683610c8c565b95508019841693508086168417925050509392505050565b6000819050919050565b6000610d10610d0b610d06846107bb565b610ceb565b6107bb565b9050919050565b6000819050919050565b610d2a83610cf5565b610d3e610d3682610d17565b848454610c99565b825550505050565b600090565b610d53610d46565b610d5e818484610d21565b505050565b5b81811015610d8257610d77600082610d4b565b600181019050610d64565b5050565b601f821115610dc757610d9881610c67565b610da184610c7c565b81016020851015610db0578190505b610dc4610dbc85610c7c565b830182610d63565b50505b505050565b600082821c905092915050565b6000610dea60001984600802610dcc565b1980831691505092915050565b6000610e038383610dd9565b9150826002028217905092915050565b610e1c8261081e565b67ffffffffffffffff811115610e3557610e34610919565b5b610e3f8254610c36565b610e4a828285610d86565b600060209050601f831160018114610e7d5760008415610e6b578287015190505b610e758582610df7565b865550610edd565b601f198416610e8b86610c67565b60005b82811015610eb357848901518255600182019150602085019450602081019050610e8e565b86831015610ed05784890151610ecc601f891682610dd9565b8355505b6001600288020188555050505b50505050505056fea26469706673582212202647fd9c8898192f52d78a05341e0b962924cef9954aec3a6d09adc99e2049a764736f6c634300081c0033",
  "linkReferences": {},
  "deployedLinkReferences": {}
}